{"abi":[{"type":"constructor","inputs":[{"name":"initialOwner","type":"address","internalType":"address"},{"name":"authorizer","type":"address","internalType":"address"}],"stateMutability":"nonpayable"},{"type":"function","name":"TIMELOCK_DURATION","inputs":[],"outputs":[{"name":"","type":"uint256","internalType":"uint256"}],"stateMutability":"view"},{"type":"function","name":"TOTAL_SUPPLY","inputs":[],"outputs":[{"name":"","type":"uint256","internalType":"uint256"}],"stateMutability":"view"},{"type":"function","name":"allowance","inputs":[{"name":"owner","type":"address","internalType":"address"},{"name":"spender","type":"address","internalType":"address"}],"outputs":[{"name":"","type":"uint256","internalType":"uint256"}],"stateMutability":"view"},{"type":"function","name":"approve","inputs":[{"name":"spender","type":"address","internalType":"address"},{"name":"value","type":"uint256","internalType":"uint256"}],"outputs":[{"name":"","type":"bool","internalType":"bool"}],"stateMutability":"nonpayable"},{"type":"function","name":"balanceOf","inputs":[{"name":"account","type":"address","internalType":"address"}],"outputs":[{"name":"","type":"uint256","internalType":"uint256"}],"stateMutability":"view"},{"type":"function","name":"cancelPendingUpdate","inputs":[],"outputs":[],"stateMutability":"nonpayable"},{"type":"function","name":"decimals","inputs":[],"outputs":[{"name":"","type":"uint8","internalType":"uint8"}],"stateMutability":"view"},{"type":"function","name":"finalizePQCAuthorizer","inputs":[{"name":"proof","type":"bytes","internalType":"bytes"}],"outputs":[],"stateMutability":"nonpayable"},{"type":"function","name":"name","inputs":[],"outputs":[{"name":"","type":"string","internalType":"string"}],"stateMutability":"view"},{"type":"function","name":"owner","inputs":[],"outputs":[{"name":"","type":"address","internalType":"address"}],"stateMutability":"view"},{"type":"function","name":"pendingPQCAuthorizer","inputs":[],"outputs":[{"name":"","type":"address","internalType":"address"}],"stateMutability":"view"},{"type":"function","name":"pqcAuthorizer","inputs":[],"outputs":[{"name":"","type":"address","internalType":"contract IPQCAuthorizer"}],"stateMutability":"view"},{"type":"function","name":"probePendingAuthorizer","inputs":[{"name":"account","type":"address","internalType":"address"}],"outputs":[{"name":"status","type":"uint8","internalType":"enum QONE.ProbeStatus"},{"name":"pending","type":"address","internalType":"address"}],"stateMutability":"view"},{"type":"function","name":"proposePQCAuthorizer","inputs":[{"name":"newAuthorizer","type":"address","internalType":"address"}],"outputs":[],"stateMutability":"nonpayable"},{"type":"function","name":"renounceOwnership","inputs":[],"outputs":[],"stateMutability":"nonpayable"},{"type":"function","name":"symbol","inputs":[],"outputs":[{"name":"","type":"string","internalType":"string"}],"stateMutability":"view"},{"type":"function","name":"totalSupply","inputs":[],"outputs":[{"name":"","type":"uint256","internalType":"uint256"}],"stateMutability":"view"},{"type":"function","name":"transfer","inputs":[{"name":"to","type":"address","internalType":"address"},{"name":"value","type":"uint256","internalType":"uint256"}],"outputs":[{"name":"","type":"bool","internalType":"bool"}],"stateMutability":"nonpayable"},{"type":"function","name":"transferFrom","inputs":[{"name":"from","type":"address","internalType":"address"},{"name":"to","type":"address","internalType":"address"},{"name":"value","type":"uint256","internalType":"uint256"}],"outputs":[{"name":"","type":"bool","internalType":"bool"}],"stateMutability":"nonpayable"},{"type":"function","name":"transferOwnership","inputs":[{"name":"newOwner","type":"address","internalType":"address"}],"outputs":[],"stateMutability":"nonpayable"},{"type":"function","name":"upgradeTimelock","inputs":[],"outputs":[{"name":"","type":"uint256","internalType":"uint256"}],"stateMutability":"view"},{"type":"event","name":"Approval","inputs":[{"name":"owner","type":"address","indexed":true,"internalType":"address"},{"name":"spender","type":"address","indexed":true,"internalType":"address"},{"name":"value","type":"uint256","indexed":false,"internalType":"uint256"}],"anonymous":false},{"type":"event","name":"OwnershipTransferred","inputs":[{"name":"previousOwner","type":"address","indexed":true,"internalType":"address"},{"name":"newOwner","type":"address","indexed":true,"internalType":"address"}],"anonymous":false},{"type":"event","name":"PQCAuthorizerUpdated","inputs":[{"name":"newAuthorizer","type":"address","indexed":true,"internalType":"address"}],"anonymous":false},{"type":"event","name":"PQCAuthorizerUpgradeCancelled","inputs":[{"name":"oldPending","type":"address","indexed":true,"internalType":"address"}],"anonymous":false},{"type":"event","name":"PQCAuthorizerUpgradeProposed","inputs":[{"name":"pendingAuthorizer","type":"address","indexed":true,"internalType":"address"},{"name":"unlockTime","type":"uint256","indexed":false,"internalType":"uint256"}],"anonymous":false},{"type":"event","name":"Transfer","inputs":[{"name":"from","type":"address","indexed":true,"internalType":"address"},{"name":"to","type":"address","indexed":true,"internalType":"address"},{"name":"value","type":"uint256","indexed":false,"internalType":"uint256"}],"anonymous":false},{"type":"error","name":"ERC20InsufficientAllowance","inputs":[{"name":"spender","type":"address","internalType":"address"},{"name":"allowance","type":"uint256","internalType":"uint256"},{"name":"needed","type":"uint256","internalType":"uint256"}]},{"type":"error","name":"ERC20InsufficientBalance","inputs":[{"name":"sender","type":"address","internalType":"address"},{"name":"balance","type":"uint256","internalType":"uint256"},{"name":"needed","type":"uint256","internalType":"uint256"}]},{"type":"error","name":"ERC20InvalidApprover","inputs":[{"name":"approver","type":"address","internalType":"address"}]},{"type":"error","name":"ERC20InvalidReceiver","inputs":[{"name":"receiver","type":"address","internalType":"address"}]},{"type":"error","name":"ERC20InvalidSender","inputs":[{"name":"sender","type":"address","internalType":"address"}]},{"type":"error","name":"ERC20InvalidSpender","inputs":[{"name":"spender","type":"address","internalType":"address"}]},{"type":"error","name":"OwnableInvalidOwner","inputs":[{"name":"owner","type":"address","internalType":"address"}]},{"type":"error","name":"OwnableUnauthorizedAccount","inputs":[{"name":"account","type":"address","internalType":"address"}]}],"bytecode":{"object":"0x608060405234801562000010575f80fd5b50604051620016713803806200167183398101604081905262000033916200043c565b604080518082018252600480825263514f4e4560e01b60208084018290528451808601909552918452908301528391600362000070838262000511565b5060046200007f828262000511565b5050506001600160a01b038116620000b157604051631e4fbdf760e01b81525f60048201526024015b60405180910390fd5b620000bc816200017b565b506001600160a01b038116620001155760405162461bcd60e51b815260206004820181905260248201527f514f4e453a20617574686f72697a6572206973207a65726f20616464726573736044820152606401620000a8565b6200012d826b033b2e3c9fd0803ce8000000620001cc565b600680546001600160a01b0319166001600160a01b0383169081179091556040517f48f8e52fb4f82796b2f5d8c14a2d014e4bdfbe0ddd558bae857ae39aba011e2d905f90a2505062000627565b600580546001600160a01b038381166001600160a01b0319831681179093556040519116919082907f8be0079c531659141344cd1fd0a4f28419497f9722a3daafe3b4186f6b6457e0905f90a35050565b6001600160a01b038216620001f75760405163ec442f0560e01b81525f6004820152602401620000a8565b620002045f838362000208565b5050565b6001600160a01b03831615620002df576006546040516301fd3f7760e71b81526001600160a01b0385811660048301529091169063fe9fbb8090602401602060405180830381865afa15801562000261573d5f803e3d5ffd5b505050506040513d601f19601f82011682018060405250810190620002879190620005d9565b620002df5760405162461bcd60e51b815260206004820152602160248201527f514f4e453a2073656e646572206e6f7420617574686f72697a656420285051436044820152602960f81b6064820152608401620000a8565b620002ec838383620002f1565b505050565b6001600160a01b0383166200031f578060025f82825462000313919062000601565b90915550620003919050565b6001600160a01b0383165f9081526020819052604090205481811015620003735760405163391434e360e21b81526001600160a01b03851660048201526024810182905260448101839052606401620000a8565b6001600160a01b0384165f9081526020819052604090209082900390555b6001600160a01b038216620003af57600280548290039055620003cd565b6001600160a01b0382165f9081526020819052604090208054820190555b816001600160a01b0316836001600160a01b03167fddf252ad1be2c89b69c2b068fc378daa952ba7f163c4a11628f55a4df523b3ef836040516200041391815260200190565b60405180910390a3505050565b80516001600160a01b038116811462000437575f80fd5b919050565b5f80604083850312156200044e575f80fd5b620004598362000420565b9150620004696020840162000420565b90509250929050565b634e487b7160e01b5f52604160045260245ffd5b600181811c908216806200049b57607f821691505b602082108103620004ba57634e487b7160e01b5f52602260045260245ffd5b50919050565b601f821115620002ec575f81815260208120601f850160051c81016020861015620004e85750805b601f850160051c820191505b818110156200050957828155600101620004f4565b505050505050565b81516001600160401b038111156200052d576200052d62000472565b62000545816200053e845462000486565b84620004c0565b602080601f8311600181146200057b575f8415620005635750858301515b5f19600386901b1c1916600185901b17855562000509565b5f85815260208120601f198616915b82811015620005ab578886015182559484019460019091019084016200058a565b5085821015620005c957878501515f19600388901b60f8161c191681555b5050505050600190811b01905550565b5f60208284031215620005ea575f80fd5b81518015158114620005fa575f80fd5b9392505050565b808201808211156200062157634e487b7160e01b5f52601160045260245ffd5b92915050565b61103c80620006355f395ff3fe608060405234801561000f575f80fd5b5060043610610132575f3560e01c806371b36c9e116100b4578063902d55a511610079578063902d55a51461027757806390acc6301461028a57806395d89b411461029d578063a9059cbb146102a5578063dd62ed3e146102b8578063f2fde38b146102f0575f80fd5b806371b36c9e146102105780637e98778f146102235780638c879fb9146102365780638da5cb5b1461023f5780638e3ec4df14610264575f80fd5b80632f7ba882116100fa5780632f7ba882146101bd578063313ce567146101c75780634623c81e146101d657806370a08231146101e0578063715018a614610208575f80fd5b806306fdde0314610136578063095ea7b31461015457806318160ddd1461017757806323b872dd146101895780632dc8aee31461019c575b5f80fd5b61013e610303565b60405161014b9190610d41565b60405180910390f35b610167610162366004610da7565b610393565b604051901515815260200161014b565b6002545b60405190815260200161014b565b610167610197366004610dcf565b6103ac565b6101af6101aa366004610e08565b6103cf565b60405161014b929190610e28565b6101c5610488565b005b6040516012815260200161014b565b61017b6202a30081565b61017b6101ee366004610e08565b6001600160a01b03165f9081526020819052604090205490565b6101c5610507565b6101c561021e366004610e08565b61051a565b6101c5610231366004610e60565b610703565b61017b60085481565b6005546001600160a01b03165b6040516001600160a01b03909116815260200161014b565b60065461024c906001600160a01b031681565b61017b6b033b2e3c9fd0803ce800000081565b60075461024c906001600160a01b031681565b61013e6108b0565b6101676102b3366004610da7565b6108bf565b61017b6102c6366004610ecc565b6001600160a01b039182165f90815260016020908152604080832093909416825291909152205490565b6101c56102fe366004610e08565b6108cc565b60606003805461031290610efd565b80601f016020809104026020016040519081016040528092919081815260200182805461033e90610efd565b80156103895780601f1061036057610100808354040283529160200191610389565b820191905f5260205f20905b81548152906001019060200180831161036c57829003601f168201915b5050505050905090565b5f336103a0818585610909565b60019150505b92915050565b5f336103b985828561091b565b6103c4858585610997565b506001949350505050565b6007545f906001600160a01b0316806104035760405162461bcd60e51b81526004016103fa90610f35565b60405180910390fd5b6040516301fd3f7760e71b81526001600160a01b03848116600483015282169063fe9fbb8090602401602060405180830381865afa925050508015610465575060408051601f3d908101601f1916820190925261046291810190610f6c565b60015b6104725760029150915091565b8061047e576001610480565b5f5b925050915091565b6104906109f4565b6007546001600160a01b03166104b85760405162461bcd60e51b81526004016103fa90610f35565b600780546001600160a01b031981169091555f60088190556040516001600160a01b039092169182917fa31ed531af135901da09dd24d60dc9585a6837b49c63a7689acca32cec2a326a91a250565b61050f6109f4565b6105185f610a21565b565b6105226109f4565b6001600160a01b0381166105845760405162461bcd60e51b8152602060048201526024808201527f514f4e453a206e657720617574686f72697a6572206973207a65726f206164646044820152637265737360e01b60648201526084016103fa565b6007546001600160a01b0316156105dd5760405162461bcd60e51b815260206004820152601f60248201527f514f4e453a2070656e64696e6720617574686f72697a6572206578697374730060448201526064016103fa565b6040516301fd3f7760e71b81525f60048201526001600160a01b0382169063fe9fbb8090602401602060405180830381865afa92505050801561063d575060408051601f3d908101601f1916820190925261063a91810190610f6c565b60015b6106945760405162461bcd60e51b815260206004820152602260248201527f514f4e453a20696e76616c696420617574686f72697a657220696e7465726661604482015261636560f01b60648201526084016103fa565b50600780546001600160a01b0319166001600160a01b0383161790556106bd6202a30042610f8b565b60088190556040519081526001600160a01b038216907f7ad59ae5c1f64dbde140d225d88f5273674b351f73fb2ed741961626960f2ee09060200160405180910390a250565b61070b6109f4565b6007546001600160a01b03166107335760405162461bcd60e51b81526004016103fa90610f35565b6008544210156107855760405162461bcd60e51b815260206004820152601a60248201527f514f4e453a2074696d656c6f636b206e6f74206578706972656400000000000060448201526064016103fa565b6007546006546040516348221f6d60e01b81526001600160a01b03928316925f9216906348221f6d906107c69033903090859088908b908b90600401610faa565b6020604051808303815f875af11580156107e2573d5f803e3d5ffd5b505050506040513d601f19601f820116820180604052508101906108069190610f6c565b9050806108555760405162461bcd60e51b815260206004820181905260248201527f514f4e453a205051432075706772616465206e6f7420617574686f72697a656460448201526064016103fa565b600680546001600160a01b0384166001600160a01b031991821681179092556007805490911690555f60088190556040517f48f8e52fb4f82796b2f5d8c14a2d014e4bdfbe0ddd558bae857ae39aba011e2d9190a250505050565b60606004805461031290610efd565b5f336103a0818585610997565b6108d46109f4565b6001600160a01b0381166108fd57604051631e4fbdf760e01b81525f60048201526024016103fa565b61090681610a21565b50565b6109168383836001610a72565b505050565b6001600160a01b038381165f908152600160209081526040808320938616835292905220545f19811015610991578181101561098357604051637dc7a0d960e11b81526001600160a01b038416600482015260248101829052604481018390526064016103fa565b61099184848484035f610a72565b50505050565b6001600160a01b0383166109c057604051634b637e8f60e11b81525f60048201526024016103fa565b6001600160a01b0382166109e95760405163ec442f0560e01b81525f60048201526024016103fa565b610916838383610b44565b6005546001600160a01b031633146105185760405163118cdaa760e01b81523360048201526024016103fa565b600580546001600160a01b038381166001600160a01b0319831681179093556040519116919082907f8be0079c531659141344cd1fd0a4f28419497f9722a3daafe3b4186f6b6457e0905f90a35050565b6001600160a01b038416610a9b5760405163e602df0560e01b81525f60048201526024016103fa565b6001600160a01b038316610ac457604051634a1406b160e11b81525f60048201526024016103fa565b6001600160a01b038085165f908152600160209081526040808320938716835292905220829055801561099157826001600160a01b0316846001600160a01b03167f8c5be1e5ebec7d5bd14f71427d1e84f3dd0314c0f7b2291e5b200ac8c7c3b92584604051610b3691815260200190565b60405180910390a350505050565b6001600160a01b03831615610c15576006546040516301fd3f7760e71b81526001600160a01b0385811660048301529091169063fe9fbb8090602401602060405180830381865afa158015610b9b573d5f803e3d5ffd5b505050506040513d601f19601f82011682018060405250810190610bbf9190610f6c565b610c155760405162461bcd60e51b815260206004820152602160248201527f514f4e453a2073656e646572206e6f7420617574686f72697a656420285051436044820152602960f81b60648201526084016103fa565b6109168383836001600160a01b038316610c45578060025f828254610c3a9190610f8b565b90915550610cb59050565b6001600160a01b0383165f9081526020819052604090205481811015610c975760405163391434e360e21b81526001600160a01b038516600482015260248101829052604481018390526064016103fa565b6001600160a01b0384165f9081526020819052604090209082900390555b6001600160a01b038216610cd157600280548290039055610cef565b6001600160a01b0382165f9081526020819052604090208054820190555b816001600160a01b0316836001600160a01b03167fddf252ad1be2c89b69c2b068fc378daa952ba7f163c4a11628f55a4df523b3ef83604051610d3491815260200190565b60405180910390a3505050565b5f6020808352835180828501525f5b81811015610d6c57858101830151858201604001528201610d50565b505f604082860101526040601f19601f8301168501019250505092915050565b80356001600160a01b0381168114610da2575f80fd5b919050565b5f8060408385031215610db8575f80fd5b610dc183610d8c565b946020939093013593505050565b5f805f60608486031215610de1575f80fd5b610dea84610d8c565b9250610df860208501610d8c565b9150604084013590509250925092565b5f60208284031215610e18575f80fd5b610e2182610d8c565b9392505050565b6040810160038410610e4857634e487b7160e01b5f52602160045260245ffd5b9281526001600160a01b039190911660209091015290565b5f8060208385031215610e71575f80fd5b823567ffffffffffffffff80821115610e88575f80fd5b818501915085601f830112610e9b575f80fd5b813581811115610ea9575f80fd5b866020828501011115610eba575f80fd5b60209290920196919550909350505050565b5f8060408385031215610edd575f80fd5b610ee683610d8c565b9150610ef460208401610d8c565b90509250929050565b600181811c90821680610f1157607f821691505b602082108103610f2f57634e487b7160e01b5f52602260045260245ffd5b50919050565b6020808252601b908201527f514f4e453a206e6f2070656e64696e6720617574686f72697a65720000000000604082015260600190565b5f60208284031215610f7c575f80fd5b81518015158114610e21575f80fd5b808201808211156103a657634e487b7160e01b5f52601160045260245ffd5b6001600160a01b038781168252868116602083015285811660408301528416606082015260a06080820181905281018290525f828460c08401375f60c0848401015260c0601f19601f850116830101905097965050505050505056fea2646970667358221220764a023f4a86b5c5276a7cf767346b2dfa7cdeea65dfe75447b65c49a1569d5764736f6c63430008140033","linkReferences":{}},"methodIdentifiers":{"TIMELOCK_DURATION()":"4623c81e","TOTAL_SUPPLY()":"902d55a5","allowance(address,address)":"dd62ed3e","approve(address,uint256)":"095ea7b3","balanceOf(address)":"70a08231","cancelPendingUpdate()":"2f7ba882","decimals()":"313ce567","finalizePQCAuthorizer(bytes)":"7e98778f","name()":"06fdde03","owner()":"8da5cb5b","pendingPQCAuthorizer()":"90acc630","pqcAuthorizer()":"8e3ec4df","probePendingAuthorizer(address)":"2dc8aee3","proposePQCAuthorizer(address)":"71b36c9e","renounceOwnership()":"715018a6","symbol()":"95d89b41","totalSupply()":"18160ddd","transfer(address,uint256)":"a9059cbb","transferFrom(address,address,uint256)":"23b872dd","transferOwnership(address)":"f2fde38b","upgradeTimelock()":"8c879fb9"},"id":0}