{"abi":[{"type":"constructor","inputs":[{"name":"_token","type":"address","internalType":"address"},{"name":"_tgeTimestamp","type":"uint256","internalType":"uint256"},{"name":"initialOwner","type":"address","internalType":"address"}],"stateMutability":"nonpayable"},{"type":"function","name":"allocations","inputs":[{"name":"","type":"address","internalType":"address"},{"name":"","type":"uint8","internalType":"uint8"}],"outputs":[{"name":"totalAmount","type":"uint256","internalType":"uint256"},{"name":"claimedAmount","type":"uint256","internalType":"uint256"},{"name":"initialized","type":"bool","internalType":"bool"}],"stateMutability":"view"},{"type":"function","name":"claim","inputs":[{"name":"category","type":"uint8","internalType":"uint8"}],"outputs":[],"stateMutability":"nonpayable"},{"type":"function","name":"emergencyWithdraw","inputs":[{"name":"amount","type":"uint256","internalType":"uint256"}],"outputs":[],"stateMutability":"nonpayable"},{"type":"function","name":"getAllocation","inputs":[{"name":"beneficiary","type":"address","internalType":"address"},{"name":"category","type":"uint8","internalType":"uint8"}],"outputs":[{"name":"","type":"tuple","internalType":"struct TokenVestingV2.Allocation","components":[{"name":"totalAmount","type":"uint256","internalType":"uint256"},{"name":"claimedAmount","type":"uint256","internalType":"uint256"},{"name":"initialized","type":"bool","internalType":"bool"}]}],"stateMutability":"view"},{"type":"function","name":"getClaimableAmount","inputs":[{"name":"beneficiary","type":"address","internalType":"address"},{"name":"category","type":"uint8","internalType":"uint8"}],"outputs":[{"name":"","type":"uint256","internalType":"uint256"}],"stateMutability":"view"},{"type":"function","name":"getVestedAmount","inputs":[{"name":"beneficiary","type":"address","internalType":"address"},{"name":"category","type":"uint8","internalType":"uint8"}],"outputs":[{"name":"","type":"uint256","internalType":"uint256"}],"stateMutability":"view"},{"type":"function","name":"getVestingSchedule","inputs":[{"name":"category","type":"uint8","internalType":"uint8"}],"outputs":[{"name":"","type":"tuple","internalType":"struct TokenVestingV2.VestingSchedule","components":[{"name":"tgePercent","type":"uint256","internalType":"uint256"},{"name":"cliffDuration","type":"uint256","internalType":"uint256"},{"name":"vestingDuration","type":"uint256","internalType":"uint256"}]}],"stateMutability":"view"},{"type":"function","name":"initializeMyAllocation","inputs":[{"name":"totalAmount","type":"uint256","internalType":"uint256"},{"name":"category","type":"uint8","internalType":"uint8"},{"name":"proof","type":"bytes32[]","internalType":"bytes32[]"}],"outputs":[],"stateMutability":"nonpayable"},{"type":"function","name":"merkleRoots","inputs":[{"name":"","type":"uint8","internalType":"uint8"}],"outputs":[{"name":"","type":"bytes32","internalType":"bytes32"}],"stateMutability":"view"},{"type":"function","name":"owner","inputs":[],"outputs":[{"name":"","type":"address","internalType":"address"}],"stateMutability":"view"},{"type":"function","name":"renounceOwnership","inputs":[],"outputs":[],"stateMutability":"nonpayable"},{"type":"function","name":"setMerkleRoot","inputs":[{"name":"category","type":"uint8","internalType":"uint8"},{"name":"newRoot","type":"bytes32","internalType":"bytes32"}],"outputs":[],"stateMutability":"nonpayable"},{"type":"function","name":"tgeTimestamp","inputs":[],"outputs":[{"name":"","type":"uint256","internalType":"uint256"}],"stateMutability":"view"},{"type":"function","name":"token","inputs":[],"outputs":[{"name":"","type":"address","internalType":"contract IERC20"}],"stateMutability":"view"},{"type":"function","name":"totalAllocated","inputs":[],"outputs":[{"name":"","type":"uint256","internalType":"uint256"}],"stateMutability":"view"},{"type":"function","name":"totalClaimed","inputs":[],"outputs":[{"name":"","type":"uint256","internalType":"uint256"}],"stateMutability":"view"},{"type":"function","name":"transferOwnership","inputs":[{"name":"newOwner","type":"address","internalType":"address"}],"outputs":[],"stateMutability":"nonpayable"},{"type":"function","name":"vestingSchedules","inputs":[{"name":"","type":"uint8","internalType":"uint8"}],"outputs":[{"name":"tgePercent","type":"uint256","internalType":"uint256"},{"name":"cliffDuration","type":"uint256","internalType":"uint256"},{"name":"vestingDuration","type":"uint256","internalType":"uint256"}],"stateMutability":"view"},{"type":"function","name":"withdrawExcess","inputs":[],"outputs":[],"stateMutability":"nonpayable"},{"type":"event","name":"AllocationInitialized","inputs":[{"name":"beneficiary","type":"address","indexed":true,"internalType":"address"},{"name":"category","type":"uint8","indexed":true,"internalType":"uint8"},{"name":"amount","type":"uint256","indexed":false,"internalType":"uint256"}],"anonymous":false},{"type":"event","name":"EmergencyWithdraw","inputs":[{"name":"owner","type":"address","indexed":true,"internalType":"address"},{"name":"amount","type":"uint256","indexed":false,"internalType":"uint256"}],"anonymous":false},{"type":"event","name":"ExcessWithdrawn","inputs":[{"name":"owner","type":"address","indexed":true,"internalType":"address"},{"name":"amount","type":"uint256","indexed":false,"internalType":"uint256"}],"anonymous":false},{"type":"event","name":"MerkleRootUpdated","inputs":[{"name":"category","type":"uint8","indexed":true,"internalType":"uint8"},{"name":"newRoot","type":"bytes32","indexed":true,"internalType":"bytes32"}],"anonymous":false},{"type":"event","name":"OwnershipTransferred","inputs":[{"name":"previousOwner","type":"address","indexed":true,"internalType":"address"},{"name":"newOwner","type":"address","indexed":true,"internalType":"address"}],"anonymous":false},{"type":"event","name":"TokensClaimed","inputs":[{"name":"beneficiary","type":"address","indexed":true,"internalType":"address"},{"name":"category","type":"uint8","indexed":true,"internalType":"uint8"},{"name":"amount","type":"uint256","indexed":false,"internalType":"uint256"}],"anonymous":false},{"type":"error","name":"AlreadyInitialized","inputs":[]},{"type":"error","name":"InvalidAmount","inputs":[]},{"type":"error","name":"InvalidCategory","inputs":[]},{"type":"error","name":"InvalidMerkleRoot","inputs":[]},{"type":"error","name":"InvalidProof","inputs":[]},{"type":"error","name":"InvalidState","inputs":[]},{"type":"error","name":"InvalidToken","inputs":[]},{"type":"error","name":"NoExcessTokens","inputs":[]},{"type":"error","name":"NothingToClaim","inputs":[]},{"type":"error","name":"OwnableInvalidOwner","inputs":[{"name":"owner","type":"address","internalType":"address"}]},{"type":"error","name":"OwnableUnauthorizedAccount","inputs":[{"name":"account","type":"address","internalType":"address"}]},{"type":"error","name":"ReentrancyGuardReentrantCall","inputs":[]},{"type":"error","name":"SafeERC20FailedOperation","inputs":[{"name":"token","type":"address","internalType":"address"}]},{"type":"error","name":"TGEStarted","inputs":[]}],"bytecode":{"object":"0x60c060405234801561000f575f80fd5b50604051620015e7380380620015e783398101604081905261003091610491565b806001600160a01b03811661005e57604051631e4fbdf760e01b81525f600482015260240160405180910390fd5b61006781610427565b5060017f9b779b17422d0df92223018b32b4d1fa46e071723d6817e2486d003becc55f00556001600160a01b0383166100b35760405163c1ab6dc160e01b815260040160405180910390fd5b506001600160a01b0390911660805260a05260408051606080820183526105dc8083526276a7006020808501918252630163f5008587019081525f808052600180845296517fa6eef7e35abe7026729641147f7915573c7e97b47efa546f5f6e3230263bcb495592517fa6eef7e35abe7026729641147f7915573c7e97b47efa546f5f6e3230263bcb4a55517fa6eef7e35abe7026729641147f7915573c7e97b47efa546f5f6e3230263bcb4b55855180850187529283528281018281526301e1338084880190815286845286835293517fcc69885fda6bcc1a4ace058b4a62bf5e179ea78fd58a1ccd71c22cc9b688792f55517fcc69885fda6bcc1a4ace058b4a62bf5e179ea78fd58a1ccd71c22cc9b68879305591517fcc69885fda6bcc1a4ace058b4a62bf5e179ea78fd58a1ccd71c22cc9b6887931558451808401865261271081528083018281528187018381526002845286855291517fd9d16d34ffb15ba3a3d852f0d403e2ce1d691fb54de27ac87cd2f993f3ec330f55517fd9d16d34ffb15ba3a3d852f0d403e2ce1d691fb54de27ac87cd2f993f3ec331055517fd9d16d34ffb15ba3a3d852f0d403e2ce1d691fb54de27ac87cd2f993f3ec331155845180840186526107d0815262ed4e008184019081526303c267008288018181526003855287865292517f7dfe757ecd65cbd7922a9c0161e935dd7fdbcc0e999689c7d31633896b1fc60b5590517f7dfe757ecd65cbd7922a9c0161e935dd7fdbcc0e999689c7d31633896b1fc60c5590517f7dfe757ecd65cbd7922a9c0161e935dd7fdbcc0e999689c7d31633896b1fc60d558551808501875261138881528084018381526305a39a808289019081526004855287865291517fedc95719e9a3b28dd8e80877cb5880a9be7de1a13fc8b05e7999683b6b56764355517fedc95719e9a3b28dd8e80877cb5880a9be7de1a13fc8b05e7999683b6b56764455517fedc95719e9a3b28dd8e80877cb5880a9be7de1a13fc8b05e7999683b6b567645558551938401865261038484528383018281529584019081526005909152929052517fe2689cd4a84e23ad2f564004f1c9013e9589d260bde6380aba3ca7e09e4df40c5590517fe2689cd4a84e23ad2f564004f1c9013e9589d260bde6380aba3ca7e09e4df40d55517fe2689cd4a84e23ad2f564004f1c9013e9589d260bde6380aba3ca7e09e4df40e556104ca565b5f80546001600160a01b038381166001600160a01b0319831681178455604051919092169283917f8be0079c531659141344cd1fd0a4f28419497f9722a3daafe3b4186f6b6457e09190a35050565b80516001600160a01b038116811461048c575f80fd5b919050565b5f805f606084860312156104a3575f80fd5b6104ac84610476565b9250602084015191506104c160408501610476565b90509250925092565b60805160a0516110d1620005165f395f818161029f0152818161040601528181610ae00152610b6b01525f8181610358015281816104620152818161068c015261097101526110d15ff3fe608060405234801561000f575f80fd5b506004361061011c575f3560e01c806395d4063f116100a9578063c264a0631161006e578063c264a0631461031c578063d54ad2a114610324578063dfc91e161461032d578063f2fde38b14610340578063fc0c546a14610353575f80fd5b806395d4063f146102505780639859384814610263578063a4317ef41461029a578063a899d5ad146102c1578063b4a0dc01146102d4575f80fd5b80635312ea8e116100ef5780635312ea8e146101e957806354d77e0e146101fe578063715018a6146102115780638da5cb5b1461021957806395a065471461023d575f80fd5b8063229f65b01461012057806337e3a5b21461017e57806341e5fb40146101b357806345f7f249146101e0575b5f80fd5b61015c61012e366004610ec3565b600360209081525f928352604080842090915290825290208054600182015460029092015490919060ff1683565b6040805193845260208401929092521515908201526060015b60405180910390f35b61019161018c366004610ef4565b61037a565b6040805182518152602080840151908201529181015190820152606001610175565b6101d26101c1366004610ef4565b60026020525f908152604090205481565b604051908152602001610175565b6101d260045481565b6101fc6101f7366004610f0d565b6103fc565b005b6101fc61020c366004610f24565b6104d9565b6101fc610566565b5f546001600160a01b03165b6040516001600160a01b039091168152602001610175565b6101d261024b366004610ec3565b610579565b6101fc61025e366004610ef4565b6105d7565b610276610271366004610ec3565b61071b565b60408051825181526020808401519082015291810151151590820152606001610175565b6101d27f000000000000000000000000000000000000000000000000000000000000000081565b6101fc6102cf366004610f4c565b610790565b6103016102e2366004610ef4565b600160208190525f918252604090912080549181015460029091015483565b60408051938452602084019290925290820152606001610175565b6101fc61092d565b6101d260055481565b6101d261033b366004610ec3565b610a8a565b6101fc61034e366004610fcf565b610c42565b6102257f000000000000000000000000000000000000000000000000000000000000000081565b61039b60405180606001604052805f81526020015f81526020015f81525090565b8160058160ff1611156103c157604051636b3ac97b60e11b815260040160405180910390fd5b505060ff165f908152600160208181526040928390208351606081018552815481529281015491830191909152600201549181019190915290565b610404610c81565b7f000000000000000000000000000000000000000000000000000000000000000042106104445760405163699aecf360e01b815260040160405180910390fd5b6104896104585f546001600160a01b031690565b6001600160a01b037f0000000000000000000000000000000000000000000000000000000000000000169083610cad565b5f546001600160a01b03166001600160a01b03167f5fafa99d0643513820be26656b45130b01e1c03062e1266bf36f88cbd3bd9695826040516104ce91815260200190565b60405180910390a250565b6104e1610c81565b8160058160ff16111561050757604051636b3ac97b60e11b815260040160405180910390fd5b8161052557604051639dd854d360e01b815260040160405180910390fd5b60ff83165f81815260026020526040808220859055518492917f766f1410c9c4b1de7325bf118e90e8d8391c45f61176ed121c69cbd81599959a91a3505050565b61056e610c81565b6105775f610ce7565b565b5f806105858484610a8a565b6001600160a01b0385165f90815260036020908152604080832060ff881684529091529020600101549091508082116105c2575f925050506105d1565b6105cc8183610ffc565b925050505b92915050565b6105df610d36565b8060058160ff16111561060557604051636b3ac97b60e11b815260040160405180910390fd5b5f6106103384610579565b9050805f03610632576040516312d37ee560e31b815260040160405180910390fd5b335f90815260036020908152604080832060ff871684529091528120600101805483929061066190849061100f565b925050819055508060055f828254610679919061100f565b909155506106b390506001600160a01b037f0000000000000000000000000000000000000000000000000000000000000000163383610cad565b60405181815260ff84169033907fd420a13bb2b7e34e81be008cfd970e337cd0f440975516c1f3fb6c29cdcf15db9060200160405180910390a3505061071860017f9b779b17422d0df92223018b32b4d1fa46e071723d6817e2486d003becc55f0055565b50565b61073e60405180606001604052805f81526020015f81526020015f151581525090565b506001600160a01b03919091165f90815260036020908152604080832060ff94851684528252918290208251606081018452815481526001820154928101929092526002015490921615159082015290565b8260058160ff1611156107b657604051636b3ac97b60e11b815260040160405180910390fd5b845f036107d65760405163162908e360e11b815260040160405180910390fd5b335f90815260036020908152604080832060ff808916855292529091206002810154909116156108185760405162dc149f60e41b815260040160405180910390fd5b6040805133602082015290810187905260ff861660608201525f9060800160405160208183030381529060405280519060200120905061089b8585808060200260200160405190810160405280939291908181526020018383602002808284375f92018290525060ff8c168152600260205260409020549250859150610d649050565b6108b8576040516309bde33960e01b815260040160405180910390fd5b8682555f600180840182905560028401805460ff19169091179055600480548992906108e590849061100f565b909155505060405187815260ff87169033907f8da47a40c77f452be3c726bc27008119d2ec1fa85265ea62b0ca04f4076e17019060200160405180910390a350505050505050565b610935610c81565b600554600454101561095a5760405163baf3f0f760e01b815260040160405180910390fd5b6040516370a0823160e01b81523060048201525f907f00000000000000000000000000000000000000000000000000000000000000006001600160a01b0316906370a0823190602401602060405180830381865afa1580156109be573d5f803e3d5ffd5b505050506040513d601f19601f820116820180604052508101906109e29190611022565b90505f6005546004546109f59190610ffc565b9050808211610a175760405163aba2faa560e01b815260040160405180910390fd5b5f610a228284610ffc565b9050610a386104585f546001600160a01b031690565b5f546001600160a01b03166001600160a01b03167f9bdedcc968f2c0682145c20289dfbb3081a39684571116ab45eabfef512e947382604051610a7d91815260200190565b60405180910390a2505050565b6001600160a01b0382165f90815260036020908152604080832060ff808616855290835281842082516060810184528154815260018201549481019490945260020154161580159183019190915280610b0257507f000000000000000000000000000000000000000000000000000000000000000042105b15610b10575f9150506105d1565b60ff83165f9081526001602081815260408084208151606081018352815480825294820154938101939093526002015490820152835190929161271091610b579190611039565b610b619190611050565b90505f82602001517f0000000000000000000000000000000000000000000000000000000000000000610b94919061100f565b905080421015610ba9575092506105d1915050565b5f836040015182610bba919061100f565b90505f83865f0151610bcc9190610ffc565b9050814210610be4575050925193506105d192505050565b84604001515f03610bfe575050925193506105d192505050565b5f610c098442610ffc565b90505f86604001518284610c1d9190611039565b610c279190611050565b9050610c33818761100f565b9b9a5050505050505050505050565b610c4a610c81565b6001600160a01b038116610c7857604051631e4fbdf760e01b81525f60048201526024015b60405180910390fd5b61071881610ce7565b5f546001600160a01b031633146105775760405163118cdaa760e01b8152336004820152602401610c6f565b610cba8383836001610d79565b610ce257604051635274afe760e01b81526001600160a01b0384166004820152602401610c6f565b505050565b5f80546001600160a01b038381166001600160a01b0319831681178455604051919092169283917f8be0079c531659141344cd1fd0a4f28419497f9722a3daafe3b4186f6b6457e09190a35050565b610d3e610ddb565b60027f9b779b17422d0df92223018b32b4d1fa46e071723d6817e2486d003becc55f0055565b5f82610d708584610e1d565b14949350505050565b60405163a9059cbb60e01b5f8181526001600160a01b038616600452602485905291602083604481808b5af1925060015f51148316610dcf578383151615610dc3573d5f823e3d81fd5b5f873b113d1516831692505b60405250949350505050565b7f9b779b17422d0df92223018b32b4d1fa46e071723d6817e2486d003becc55f005460020361057757604051633ee5aeb560e01b815260040160405180910390fd5b5f81815b8451811015610e6157610e4d82868381518110610e4057610e4061106f565b6020026020010151610e69565b915080610e5981611083565b915050610e21565b509392505050565b5f818310610e83575f828152602084905260409020610e91565b5f8381526020839052604090205b9392505050565b80356001600160a01b0381168114610eae575f80fd5b919050565b803560ff81168114610eae575f80fd5b5f8060408385031215610ed4575f80fd5b610edd83610e98565b9150610eeb60208401610eb3565b90509250929050565b5f60208284031215610f04575f80fd5b610e9182610eb3565b5f60208284031215610f1d575f80fd5b5035919050565b5f8060408385031215610f35575f80fd5b610f3e83610eb3565b946020939093013593505050565b5f805f8060608587031215610f5f575f80fd5b84359350610f6f60208601610eb3565b9250604085013567ffffffffffffffff80821115610f8b575f80fd5b818701915087601f830112610f9e575f80fd5b813581811115610fac575f80fd5b8860208260051b8501011115610fc0575f80fd5b95989497505060200194505050565b5f60208284031215610fdf575f80fd5b610e9182610e98565b634e487b7160e01b5f52601160045260245ffd5b818103818111156105d1576105d1610fe8565b808201808211156105d1576105d1610fe8565b5f60208284031215611032575f80fd5b5051919050565b80820281158282048414176105d1576105d1610fe8565b5f8261106a57634e487b7160e01b5f52601260045260245ffd5b500490565b634e487b7160e01b5f52603260045260245ffd5b5f6001820161109457611094610fe8565b506001019056fea2646970667358221220da646974ff87219319bb31892b8a22702cc7962d0fe129fe987b4b4540ad2c3964736f6c63430008140033","linkReferences":{}},"methodIdentifiers":{"allocations(address,uint8)":"229f65b0","claim(uint8)":"95d4063f","emergencyWithdraw(uint256)":"5312ea8e","getAllocation(address,uint8)":"98593848","getClaimableAmount(address,uint8)":"95a06547","getVestedAmount(address,uint8)":"dfc91e16","getVestingSchedule(uint8)":"37e3a5b2","initializeMyAllocation(uint256,uint8,bytes32[])":"a899d5ad","merkleRoots(uint8)":"41e5fb40","owner()":"8da5cb5b","renounceOwnership()":"715018a6","setMerkleRoot(uint8,bytes32)":"54d77e0e","tgeTimestamp()":"a4317ef4","token()":"fc0c546a","totalAllocated()":"45f7f249","totalClaimed()":"d54ad2a1","transferOwnership(address)":"f2fde38b","vestingSchedules(uint8)":"b4a0dc01","withdrawExcess()":"c264a063"},"id":0}